{
  "contractName": "SimpleStorage",
  "abi": [
    {
      "payable": true,
      "stateMutability": "payable",
      "type": "fallback"
    },
    {
      "constant": false,
      "inputs": [
        {
          "internalType": "uint256",
          "name": "x",
          "type": "uint256"
        }
      ],
      "name": "set",
      "outputs": [],
      "payable": false,
      "stateMutability": "nonpayable",
      "type": "function"
    },
    {
      "constant": true,
      "inputs": [],
      "name": "get",
      "outputs": [
        {
          "internalType": "uint256",
          "name": "",
          "type": "uint256"
        }
      ],
      "payable": false,
      "stateMutability": "view",
      "type": "function"
    },
    {
      "constant": false,
      "inputs": [
        {
          "internalType": "address payable",
          "name": "recipient",
          "type": "address"
        }
      ],
      "name": "sendEther",
      "outputs": [],
      "payable": false,
      "stateMutability": "nonpayable",
      "type": "function"
    },
    {
      "constant": false,
      "inputs": [],
      "name": "setGoStraight",
      "outputs": [],
      "payable": false,
      "stateMutability": "nonpayable",
      "type": "function"
    }
  ],
  "bytecode": "0x608060405234801561001057600080fd5b506101ab806100206000396000f3fe60806040526004361061003f5760003560e01c806346aadaa51461004157806348c981e21461005857806360fe47b1146100a95780636d4ce63c146100e4575b005b34801561004d57600080fd5b5061005661010f565b005b34801561006457600080fd5b506100a76004803603602081101561007b57600080fd5b81019080803573ffffffffffffffffffffffffffffffffffffffff169060200190929190505050610111565b005b3480156100b557600080fd5b506100e2600480360360208110156100cc57600080fd5b8101908080359060200190929190505050610163565b005b3480156100f057600080fd5b506100f961016d565b6040518082815260200191505060405180910390f35b565b8073ffffffffffffffffffffffffffffffffffffffff166108fc6798a7d9b8314c00009081150290604051600060405180830381858888f1935050505015801561015f573d6000803e3d6000fd5b5050565b8060008190555050565b6000805490509056fea265627a7a723158209f47840b6c316eb7a2ea47ca17ed79dc500e982fca734e0eed0c34d92b0c00f264736f6c63430005100032",
  "source": "pragma solidity 0.5.16;\r\n//pragma solidity >=0.4.21 <0.7.0; this is the defualt\r\n\r\ncontract SimpleStorage {\r\n  uint storedData;\r\n\r\n  function set(uint x) public {\r\n    storedData = x;\r\n  }\r\n\r\n  function get() public view returns (uint) {\r\n    return storedData;\r\n  }\r\n\r\n  address payable[] recipients;\r\n  function sendEther(address payable recipient) external {\r\n    recipient.transfer(11 ether);\r\n    //we need to do the algo for amount\r\n  }\r\n\r\n  function () external payable {\r\n\r\n  }\r\n\r\n  function setGoStraight() public {\r\n    }\r\n}\r\n",
  "sourcePath": "C:\\Users\\marko\\Documents\\GitHub\\Winhacks-2\\contracts\\SimpleStorage.sol",
  "compiler": {
    "name": "solc",
    "version": "0.5.16+commit.9c3226ce.Emscripten.clang"
  },
  "schemaVersion": "3.0.23",
  "updatedAt": "2020-03-29T08:57:03.008Z",
  "devdoc": {
    "methods": {}
  },
  "userdoc": {
    "methods": {}
  }
}