{
  "contractName": "SimpleStorage",
  "abi": [
    {
      "payable": true,
      "stateMutability": "payable",
      "type": "fallback"
    },
    {
      "constant": false,
      "inputs": [
        {
          "internalType": "uint256",
          "name": "x",
          "type": "uint256"
        }
      ],
      "name": "set",
      "outputs": [],
      "payable": false,
      "stateMutability": "nonpayable",
      "type": "function"
    },
    {
      "constant": true,
      "inputs": [],
      "name": "get",
      "outputs": [
        {
          "internalType": "uint256",
          "name": "",
          "type": "uint256"
        }
      ],
      "payable": false,
      "stateMutability": "view",
      "type": "function"
    },
    {
      "constant": false,
      "inputs": [
        {
          "internalType": "address payable",
          "name": "recipient",
          "type": "address"
        }
      ],
      "name": "sendEther",
      "outputs": [],
      "payable": false,
      "stateMutability": "nonpayable",
      "type": "function"
    }
  ],
  "bytecode": "0x608060405234801561001057600080fd5b50610187806100206000396000f3fe6080604052600436106100345760003560e01c806348c981e21461003657806360fe47b1146100875780636d4ce63c146100c2575b005b34801561004257600080fd5b506100856004803603602081101561005957600080fd5b81019080803573ffffffffffffffffffffffffffffffffffffffff1690602001909291905050506100ed565b005b34801561009357600080fd5b506100c0600480360360208110156100aa57600080fd5b810190808035906020019092919050505061013f565b005b3480156100ce57600080fd5b506100d7610149565b6040518082815260200191505060405180910390f35b8073ffffffffffffffffffffffffffffffffffffffff166108fc6798a7d9b8314c00009081150290604051600060405180830381858888f1935050505015801561013b573d6000803e3d6000fd5b5050565b8060008190555050565b6000805490509056fea265627a7a723158203a54809d893fd25a6614c51ac8122d5e7fd0d6aa167a61801d7fef5d3cd485b964736f6c63430005100032",
  "source": "pragma solidity 0.5.16;\r\n//pragma solidity >=0.4.21 <0.7.0; this is the defualt\r\n\r\ncontract SimpleStorage {\r\n  uint storedData;\r\n\r\n  function set(uint x) public {\r\n    storedData = x;\r\n  }\r\n\r\n  function get() public view returns (uint) {\r\n    return storedData;\r\n  }\r\n\r\n  address payable[] recipients;\r\n  function sendEther(address payable recipient) external {\r\n    recipient.transfer(11 ether);\r\n    //we need to do the algo for amount\r\n  }\r\n\r\n  function () external payable {\r\n\r\n  }\r\n}\r\n",
  "sourcePath": "C:\\Users\\marko\\Documents\\GitHub\\Winhacks-2\\contracts\\SimpleStorage.sol",
  "compiler": {
    "name": "solc",
    "version": "0.5.16+commit.9c3226ce.Emscripten.clang"
  },
  "schemaVersion": "3.0.23",
  "updatedAt": "2020-03-29T04:48:19.475Z",
  "devdoc": {
    "methods": {}
  },
  "userdoc": {
    "methods": {}
  }
}